{
  "_format": "hh-sol-artifact-1",
  "contractName": "Auction",
  "sourceName": "contracts/Auction.sol",
  "abi": [
    {
      "inputs": [],
      "stateMutability": "nonpayable",
      "type": "constructor"
    },
    {
      "anonymous": false,
      "inputs": [
        {
          "indexed": false,
          "internalType": "address",
          "name": "bidder",
          "type": "address"
        },
        {
          "indexed": false,
          "internalType": "uint256",
          "name": "amount",
          "type": "uint256"
        }
      ],
      "name": "BidPlaced",
      "type": "event"
    },
    {
      "inputs": [],
      "name": "auctioneer",
      "outputs": [
        {
          "internalType": "address",
          "name": "",
          "type": "address"
        }
      ],
      "stateMutability": "view",
      "type": "function"
    },
    {
      "inputs": [],
      "name": "finalizeAuction",
      "outputs": [],
      "stateMutability": "nonpayable",
      "type": "function"
    },
    {
      "inputs": [],
      "name": "highestBid",
      "outputs": [
        {
          "internalType": "uint256",
          "name": "",
          "type": "uint256"
        }
      ],
      "stateMutability": "view",
      "type": "function"
    },
    {
      "inputs": [],
      "name": "highestBidder",
      "outputs": [
        {
          "internalType": "address",
          "name": "",
          "type": "address"
        }
      ],
      "stateMutability": "view",
      "type": "function"
    },
    {
      "inputs": [],
      "name": "placeBid",
      "outputs": [],
      "stateMutability": "payable",
      "type": "function"
    }
  ],
  "bytecode": "0x608060405234801561001057600080fd5b50336000806101000a81548173ffffffffffffffffffffffffffffffffffffffff021916908373ffffffffffffffffffffffffffffffffffffffff160217905550610697806100606000396000f3fe60806040526004361061004a5760003560e01c80635ec2c7bf1461004f57806391f901571461007a578063d57bde79146100a5578063ecfc7ecc146100d0578063f77282ab146100da575b600080fd5b34801561005b57600080fd5b506100646100f1565b6040516100719190610448565b60405180910390f35b34801561008657600080fd5b5061008f610115565b60405161009c9190610448565b60405180910390f35b3480156100b157600080fd5b506100ba61013b565b6040516100c7919061047c565b60405180910390f35b6100d8610141565b005b3480156100e657600080fd5b506100ef61027f565b005b60008054906101000a900473ffffffffffffffffffffffffffffffffffffffff1681565b600260009054906101000a900473ffffffffffffffffffffffffffffffffffffffff1681565b60015481565b6001543411610185576040517f08c379a000000000000000000000000000000000000000000000000000000000815260040161017c9061051a565b60405180910390fd5b600060015411156101fc57600260009054906101000a900473ffffffffffffffffffffffffffffffffffffffff1673ffffffffffffffffffffffffffffffffffffffff166108fc6001549081150290604051600060405180830381858888f193505050501580156101fa573d6000803e3d6000fd5b505b3460018190555033600260006101000a81548173ffffffffffffffffffffffffffffffffffffffff021916908373ffffffffffffffffffffffffffffffffffffffff1602179055507f3fabff0a9c3ecd6814702e247fa9733e5d0aa69e3a38590f92cb18f623a2254d333460405161027592919061053a565b60405180910390a1565b60008054906101000a900473ffffffffffffffffffffffffffffffffffffffff1673ffffffffffffffffffffffffffffffffffffffff163373ffffffffffffffffffffffffffffffffffffffff161461030d576040517f08c379a0000000000000000000000000000000000000000000000000000000008152600401610304906105d5565b60405180910390fd5b600060015411610352576040517f08c379a000000000000000000000000000000000000000000000000000000000815260040161034990610641565b60405180910390fd5b60008054906101000a900473ffffffffffffffffffffffffffffffffffffffff1673ffffffffffffffffffffffffffffffffffffffff166108fc6001549081150290604051600060405180830381858888f193505050501580156103ba573d6000803e3d6000fd5b5060006001819055506000600260006101000a81548173ffffffffffffffffffffffffffffffffffffffff021916908373ffffffffffffffffffffffffffffffffffffffff160217905550565b600073ffffffffffffffffffffffffffffffffffffffff82169050919050565b600061043282610407565b9050919050565b61044281610427565b82525050565b600060208201905061045d6000830184610439565b92915050565b6000819050919050565b61047681610463565b82525050565b6000602082019050610491600083018461046d565b92915050565b600082825260208201905092915050565b7f426964206d75737420626520686967686572207468616e20746865206375727260008201527f656e742068696768657374206269642e00000000000000000000000000000000602082015250565b6000610504603083610497565b915061050f826104a8565b604082019050919050565b60006020820190508181036000830152610533816104f7565b9050919050565b600060408201905061054f6000830185610439565b61055c602083018461046d565b9392505050565b7f4f6e6c792061756374696f6e6565722063616e2063616c6c207468697320667560008201527f6e6374696f6e2e00000000000000000000000000000000000000000000000000602082015250565b60006105bf602783610497565b91506105ca82610563565b604082019050919050565b600060208201905081810360008301526105ee816105b2565b9050919050565b7f4e6f20626964732068617665206265656e20706c616365642e00000000000000600082015250565b600061062b601983610497565b9150610636826105f5565b602082019050919050565b6000602082019050818103600083015261065a8161061e565b905091905056fea26469706673582212202535686da469753ffa23ca230fc586c2f3f97a465d262b21b51eccd8e9ec919964736f6c63430008090033",
  "linkReferences": {},
  "deployedLinkReferences": {}
}